{
  "contractName": "PlanesWalker",
  "abi": [
    {
      "inputs": [
        {
          "internalType": "address",
          "name": "initialOwner",
          "type": "address"
        }
      ],
      "stateMutability": "nonpayable",
      "type": "constructor"
    },
    {
      "inputs": [
        {
          "internalType": "address",
          "name": "sender",
          "type": "address"
        },
        {
          "internalType": "uint256",
          "name": "tokenId",
          "type": "uint256"
        },
        {
          "internalType": "address",
          "name": "owner",
          "type": "address"
        }
      ],
      "name": "ERC721IncorrectOwner",
      "type": "error"
    },
    {
      "inputs": [
        {
          "internalType": "address",
          "name": "operator",
          "type": "address"
        },
        {
          "internalType": "uint256",
          "name": "tokenId",
          "type": "uint256"
        }
      ],
      "name": "ERC721InsufficientApproval",
      "type": "error"
    },
    {
      "inputs": [
        {
          "internalType": "address",
          "name": "approver",
          "type": "address"
        }
      ],
      "name": "ERC721InvalidApprover",
      "type": "error"
    },
    {
      "inputs": [
        {
          "internalType": "address",
          "name": "operator",
          "type": "address"
        }
      ],
      "name": "ERC721InvalidOperator",
      "type": "error"
    },
    {
      "inputs": [
        {
          "internalType": "address",
          "name": "owner",
          "type": "address"
        }
      ],
      "name": "ERC721InvalidOwner",
      "type": "error"
    },
    {
      "inputs": [
        {
          "internalType": "address",
          "name": "receiver",
          "type": "address"
        }
      ],
      "name": "ERC721InvalidReceiver",
      "type": "error"
    },
    {
      "inputs": [
        {
          "internalType": "address",
          "name": "sender",
          "type": "address"
        }
      ],
      "name": "ERC721InvalidSender",
      "type": "error"
    },
    {
      "inputs": [
        {
          "internalType": "uint256",
          "name": "tokenId",
          "type": "uint256"
        }
      ],
      "name": "ERC721NonexistentToken",
      "type": "error"
    },
    {
      "inputs": [
        {
          "internalType": "address",
          "name": "owner",
          "type": "address"
        }
      ],
      "name": "OwnableInvalidOwner",
      "type": "error"
    },
    {
      "inputs": [
        {
          "internalType": "address",
          "name": "account",
          "type": "address"
        }
      ],
      "name": "OwnableUnauthorizedAccount",
      "type": "error"
    },
    {
      "anonymous": false,
      "inputs": [
        {
          "indexed": true,
          "internalType": "address",
          "name": "owner",
          "type": "address"
        },
        {
          "indexed": true,
          "internalType": "address",
          "name": "approved",
          "type": "address"
        },
        {
          "indexed": true,
          "internalType": "uint256",
          "name": "tokenId",
          "type": "uint256"
        }
      ],
      "name": "Approval",
      "type": "event"
    },
    {
      "anonymous": false,
      "inputs": [
        {
          "indexed": true,
          "internalType": "address",
          "name": "owner",
          "type": "address"
        },
        {
          "indexed": true,
          "internalType": "address",
          "name": "operator",
          "type": "address"
        },
        {
          "indexed": false,
          "internalType": "bool",
          "name": "approved",
          "type": "bool"
        }
      ],
      "name": "ApprovalForAll",
      "type": "event"
    },
    {
      "anonymous": false,
      "inputs": [
        {
          "indexed": false,
          "internalType": "uint256",
          "name": "_fromTokenId",
          "type": "uint256"
        },
        {
          "indexed": false,
          "internalType": "uint256",
          "name": "_toTokenId",
          "type": "uint256"
        }
      ],
      "name": "BatchMetadataUpdate",
      "type": "event"
    },
    {
      "anonymous": false,
      "inputs": [
        {
          "indexed": false,
          "internalType": "uint256",
          "name": "_tokenId",
          "type": "uint256"
        }
      ],
      "name": "MetadataUpdate",
      "type": "event"
    },
    {
      "anonymous": false,
      "inputs": [
        {
          "indexed": true,
          "internalType": "address",
          "name": "previousOwner",
          "type": "address"
        },
        {
          "indexed": true,
          "internalType": "address",
          "name": "newOwner",
          "type": "address"
        }
      ],
      "name": "OwnershipTransferred",
      "type": "event"
    },
    {
      "anonymous": false,
      "inputs": [
        {
          "indexed": true,
          "internalType": "address",
          "name": "from",
          "type": "address"
        },
        {
          "indexed": true,
          "internalType": "address",
          "name": "to",
          "type": "address"
        },
        {
          "indexed": true,
          "internalType": "uint256",
          "name": "tokenId",
          "type": "uint256"
        }
      ],
      "name": "Transfer",
      "type": "event"
    },
    {
      "inputs": [
        {
          "internalType": "address",
          "name": "to",
          "type": "address"
        },
        {
          "internalType": "uint256",
          "name": "tokenId",
          "type": "uint256"
        }
      ],
      "name": "approve",
      "outputs": [],
      "stateMutability": "nonpayable",
      "type": "function"
    },
    {
      "inputs": [
        {
          "internalType": "address",
          "name": "owner",
          "type": "address"
        }
      ],
      "name": "balanceOf",
      "outputs": [
        {
          "internalType": "uint256",
          "name": "",
          "type": "uint256"
        }
      ],
      "stateMutability": "view",
      "type": "function"
    },
    {
      "inputs": [
        {
          "internalType": "uint256",
          "name": "tokenId",
          "type": "uint256"
        }
      ],
      "name": "burn",
      "outputs": [],
      "stateMutability": "nonpayable",
      "type": "function"
    },
    {
      "inputs": [
        {
          "internalType": "uint256",
          "name": "tokenId",
          "type": "uint256"
        }
      ],
      "name": "getApproved",
      "outputs": [
        {
          "internalType": "address",
          "name": "",
          "type": "address"
        }
      ],
      "stateMutability": "view",
      "type": "function"
    },
    {
      "inputs": [
        {
          "internalType": "address",
          "name": "owner",
          "type": "address"
        },
        {
          "internalType": "address",
          "name": "operator",
          "type": "address"
        }
      ],
      "name": "isApprovedForAll",
      "outputs": [
        {
          "internalType": "bool",
          "name": "",
          "type": "bool"
        }
      ],
      "stateMutability": "view",
      "type": "function"
    },
    {
      "inputs": [],
      "name": "name",
      "outputs": [
        {
          "internalType": "string",
          "name": "",
          "type": "string"
        }
      ],
      "stateMutability": "view",
      "type": "function"
    },
    {
      "inputs": [],
      "name": "owner",
      "outputs": [
        {
          "internalType": "address",
          "name": "",
          "type": "address"
        }
      ],
      "stateMutability": "view",
      "type": "function"
    },
    {
      "inputs": [
        {
          "internalType": "uint256",
          "name": "tokenId",
          "type": "uint256"
        }
      ],
      "name": "ownerOf",
      "outputs": [
        {
          "internalType": "address",
          "name": "",
          "type": "address"
        }
      ],
      "stateMutability": "view",
      "type": "function"
    },
    {
      "inputs": [],
      "name": "renounceOwnership",
      "outputs": [],
      "stateMutability": "nonpayable",
      "type": "function"
    },
    {
      "inputs": [
        {
          "internalType": "address",
          "name": "from",
          "type": "address"
        },
        {
          "internalType": "address",
          "name": "to",
          "type": "address"
        },
        {
          "internalType": "uint256",
          "name": "tokenId",
          "type": "uint256"
        }
      ],
      "name": "safeTransferFrom",
      "outputs": [],
      "stateMutability": "nonpayable",
      "type": "function"
    },
    {
      "inputs": [
        {
          "internalType": "address",
          "name": "from",
          "type": "address"
        },
        {
          "internalType": "address",
          "name": "to",
          "type": "address"
        },
        {
          "internalType": "uint256",
          "name": "tokenId",
          "type": "uint256"
        },
        {
          "internalType": "bytes",
          "name": "data",
          "type": "bytes"
        }
      ],
      "name": "safeTransferFrom",
      "outputs": [],
      "stateMutability": "nonpayable",
      "type": "function"
    },
    {
      "inputs": [
        {
          "internalType": "address",
          "name": "operator",
          "type": "address"
        },
        {
          "internalType": "bool",
          "name": "approved",
          "type": "bool"
        }
      ],
      "name": "setApprovalForAll",
      "outputs": [],
      "stateMutability": "nonpayable",
      "type": "function"
    },
    {
      "inputs": [],
      "name": "symbol",
      "outputs": [
        {
          "internalType": "string",
          "name": "",
          "type": "string"
        }
      ],
      "stateMutability": "view",
      "type": "function"
    },
    {
      "inputs": [
        {
          "internalType": "address",
          "name": "from",
          "type": "address"
        },
        {
          "internalType": "address",
          "name": "to",
          "type": "address"
        },
        {
          "internalType": "uint256",
          "name": "tokenId",
          "type": "uint256"
        }
      ],
      "name": "transferFrom",
      "outputs": [],
      "stateMutability": "nonpayable",
      "type": "function"
    },
    {
      "inputs": [
        {
          "internalType": "address",
          "name": "newOwner",
          "type": "address"
        }
      ],
      "name": "transferOwnership",
      "outputs": [],
      "stateMutability": "nonpayable",
      "type": "function"
    },
    {
      "inputs": [
        {
          "internalType": "address",
          "name": "to",
          "type": "address"
        },
        {
          "internalType": "string",
          "name": "uri",
          "type": "string"
        }
      ],
      "name": "safeMint",
      "outputs": [
        {
          "internalType": "uint256",
          "name": "",
          "type": "uint256"
        }
      ],
      "stateMutability": "nonpayable",
      "type": "function"
    },
    {
      "inputs": [
        {
          "internalType": "uint256",
          "name": "tokenID",
          "type": "uint256"
        }
      ],
      "name": "tokenURI",
      "outputs": [
        {
          "internalType": "string",
          "name": "",
          "type": "string"
        }
      ],
      "stateMutability": "view",
      "type": "function"
    },
    {
      "inputs": [
        {
          "internalType": "bytes4",
          "name": "interfaceID",
          "type": "bytes4"
        }
      ],
      "name": "supportsInterface",
      "outputs": [
        {
          "internalType": "bool",
          "name": "",
          "type": "bool"
        }
      ],
      "stateMutability": "view",
      "type": "function"
    }
  ],
  "bytecode": "0x608060405234801562000010575f80fd5b5060405162002c4038038062002c4083398181016040528101906200003691906200027c565b806040518060400160405280600c81526020017f506c616e657357616c6b657200000000000000000000000000000000000000008152506040518060400160405280600281526020017f5057000000000000000000000000000000000000000000000000000000000000815250815f9081620000b3919062000510565b508060019081620000c5919062000510565b5050505f73ffffffffffffffffffffffffffffffffffffffff168173ffffffffffffffffffffffffffffffffffffffff16036200013b575f6040517f1e4fbdf700000000000000000000000000000000000000000000000000000000815260040162000132919062000605565b60405180910390fd5b6200014c816200015460201b60201c565b505062000620565b5f60075f9054906101000a900473ffffffffffffffffffffffffffffffffffffffff1690508160075f6101000a81548173ffffffffffffffffffffffffffffffffffffffff021916908373ffffffffffffffffffffffffffffffffffffffff1602179055508173ffffffffffffffffffffffffffffffffffffffff168173ffffffffffffffffffffffffffffffffffffffff167f8be0079c531659141344cd1fd0a4f28419497f9722a3daafe3b4186f6b6457e060405160405180910390a35050565b5f80fd5b5f73ffffffffffffffffffffffffffffffffffffffff82169050919050565b5f62000246826200021b565b9050919050565b62000258816200023a565b811462000263575f80fd5b50565b5f8151905062000276816200024d565b92915050565b5f6020828403121562000294576200029362000217565b5b5f620002a38482850162000266565b91505092915050565b5f81519050919050565b7f4e487b71000000000000000000000000000000000000000000000000000000005f52604160045260245ffd5b7f4e487b71000000000000000000000000000000000000000000000000000000005f52602260045260245ffd5b5f60028204905060018216806200032857607f821691505b6020821081036200033e576200033d620002e3565b5b50919050565b5f819050815f5260205f209050919050565b5f6020601f8301049050919050565b5f82821b905092915050565b5f60088302620003a27fffffffffffffffffffffffffffffffffffffffffffffffffffffffffffffffff8262000365565b620003ae868362000365565b95508019841693508086168417925050509392505050565b5f819050919050565b5f819050919050565b5f620003f8620003f2620003ec84620003c6565b620003cf565b620003c6565b9050919050565b5f819050919050565b6200041383620003d8565b6200042b6200042282620003ff565b84845462000371565b825550505050565b5f90565b6200044162000433565b6200044e81848462000408565b505050565b5b818110156200047557620004695f8262000437565b60018101905062000454565b5050565b601f821115620004c4576200048e8162000344565b620004998462000356565b81016020851015620004a9578190505b620004c1620004b88562000356565b83018262000453565b50505b505050565b5f82821c905092915050565b5f620004e65f1984600802620004c9565b1980831691505092915050565b5f620005008383620004d5565b9150826002028217905092915050565b6200051b82620002ac565b67ffffffffffffffff811115620005375762000536620002b6565b5b62000543825462000310565b6200055082828562000479565b5f60209050601f83116001811462000586575f841562000571578287015190505b6200057d8582620004f3565b865550620005ec565b601f198416620005968662000344565b5f5b82811015620005bf5784890151825560018201915060208501945060208101905062000598565b86831015620005df5784890151620005db601f891682620004d5565b8355505b6001600288020188555050505b505050505050565b620005ff816200023a565b82525050565b5f6020820190506200061a5f830184620005f4565b92915050565b612612806200062e5f395ff3fe608060405234801561000f575f80fd5b5060043610610114575f3560e01c8063715018a6116100a0578063b88d4fde1161006f578063b88d4fde146102c8578063c87b56dd146102e4578063d204c45e14610314578063e985e9c514610344578063f2fde38b1461037457610114565b8063715018a6146102665780638da5cb5b1461027057806395d89b411461028e578063a22cb465146102ac57610114565b806323b872dd116100e757806323b872dd146101b257806342842e0e146101ce57806342966c68146101ea5780636352211e1461020657806370a082311461023657610114565b806301ffc9a71461011857806306fdde0314610148578063081812fc14610166578063095ea7b314610196575b5f80fd5b610132600480360381019061012d9190611adf565b610390565b60405161013f9190611b24565b60405180910390f35b6101506103a1565b60405161015d9190611bc7565b60405180910390f35b610180600480360381019061017b9190611c1a565b610430565b60405161018d9190611c84565b60405180910390f35b6101b060048036038101906101ab9190611cc7565b61044b565b005b6101cc60048036038101906101c79190611d05565b610461565b005b6101e860048036038101906101e39190611d05565b610560565b005b61020460048036038101906101ff9190611c1a565b61057f565b005b610220600480360381019061021b9190611c1a565b610595565b60405161022d9190611c84565b60405180910390f35b610250600480360381019061024b9190611d55565b6105a6565b60405161025d9190611d8f565b60405180910390f35b61026e61065c565b005b61027861066f565b6040516102859190611c84565b60405180910390f35b610296610697565b6040516102a39190611bc7565b60405180910390f35b6102c660048036038101906102c19190611dd2565b610727565b005b6102e260048036038101906102dd9190611f3c565b61073d565b005b6102fe60048036038101906102f99190611c1a565b61075a565b60405161030b9190611bc7565b60405180910390f35b61032e6004803603810190610329919061205a565b61076c565b60405161033b9190611d8f565b60405180910390f35b61035e600480360381019061035991906120b4565b6107aa565b60405161036b9190611b24565b60405180910390f35b61038e60048036038101906103899190611d55565b610838565b005b5f61039a826108bc565b9050919050565b60605f80546103af9061211f565b80601f01602080910402602001604051908101604052809291908181526020018280546103db9061211f565b80156104265780601f106103fd57610100808354040283529160200191610426565b820191905f5260205f20905b81548152906001019060200180831161040957829003601f168201915b5050505050905090565b5f61043a8261091c565b50610444826109a2565b9050919050565b61045d82826104586109db565b6109e2565b5050565b5f73ffffffffffffffffffffffffffffffffffffffff168273ffffffffffffffffffffffffffffffffffffffff16036104d1575f6040517f64a0ae920000000000000000000000000000000000000000000000000000000081526004016104c89190611c84565b60405180910390fd5b5f6104e483836104df6109db565b6109f4565b90508373ffffffffffffffffffffffffffffffffffffffff168173ffffffffffffffffffffffffffffffffffffffff161461055a578382826040517f64283d7b0000000000000000000000000000000000000000000000000000000081526004016105519392919061214f565b60405180910390fd5b50505050565b61057a83838360405180602001604052805f81525061073d565b505050565b6105915f8261058c6109db565b6109f4565b5050565b5f61059f8261091c565b9050919050565b5f8073ffffffffffffffffffffffffffffffffffffffff168273ffffffffffffffffffffffffffffffffffffffff1603610617575f6040517f89c62b6400000000000000000000000000000000000000000000000000000000815260040161060e9190611c84565b60405180910390fd5b60035f8373ffffffffffffffffffffffffffffffffffffffff1673ffffffffffffffffffffffffffffffffffffffff1681526020019081526020015f20549050919050565b610664610bff565b61066d5f610c86565b565b5f60075f9054906101000a900473ffffffffffffffffffffffffffffffffffffffff16905090565b6060600180546106a69061211f565b80601f01602080910402602001604051908101604052809291908181526020018280546106d29061211f565b801561071d5780601f106106f45761010080835404028352916020019161071d565b820191905f5260205f20905b81548152906001019060200180831161070057829003601f168201915b5050505050905090565b6107396107326109db565b8383610d49565b5050565b610748848484610461565b61075484848484610eb2565b50505050565b606061076582611064565b9050919050565b5f610775610bff565b5f610780600861116f565b905061078c848261117b565b6107968184611198565b6107a060086111f2565b8091505092915050565b5f60055f8473ffffffffffffffffffffffffffffffffffffffff1673ffffffffffffffffffffffffffffffffffffffff1681526020019081526020015f205f8373ffffffffffffffffffffffffffffffffffffffff1673ffffffffffffffffffffffffffffffffffffffff1681526020019081526020015f205f9054906101000a900460ff16905092915050565b610840610bff565b5f73ffffffffffffffffffffffffffffffffffffffff168173ffffffffffffffffffffffffffffffffffffffff16036108b0575f6040517f1e4fbdf70000000000000000000000000000000000000000000000000000000081526004016108a79190611c84565b60405180910390fd5b6108b981610c86565b50565b5f634906490660e01b7bffffffffffffffffffffffffffffffffffffffffffffffffffffffff1916827bffffffffffffffffffffffffffffffffffffffffffffffffffffffff1916148061091557506109148261120f565b5b9050919050565b5f80610927836112f0565b90505f73ffffffffffffffffffffffffffffffffffffffff168173ffffffffffffffffffffffffffffffffffffffff160361099957826040517f7e2732890000000000000000000000000000000000000000000000000000000081526004016109909190611d8f565b60405180910390fd5b80915050919050565b5f60045f8381526020019081526020015f205f9054906101000a900473ffffffffffffffffffffffffffffffffffffffff169050919050565b5f33905090565b6109ef8383836001611329565b505050565b5f806109ff846112f0565b90505f73ffffffffffffffffffffffffffffffffffffffff168373ffffffffffffffffffffffffffffffffffffffff1614610a4057610a3f8184866114e8565b5b5f73ffffffffffffffffffffffffffffffffffffffff168173ffffffffffffffffffffffffffffffffffffffff1614610acb57610a7f5f855f80611329565b600160035f8373ffffffffffffffffffffffffffffffffffffffff1673ffffffffffffffffffffffffffffffffffffffff1681526020019081526020015f205f82825403925050819055505b5f73ffffffffffffffffffffffffffffffffffffffff168573ffffffffffffffffffffffffffffffffffffffff1614610b4a57600160035f8773ffffffffffffffffffffffffffffffffffffffff1673ffffffffffffffffffffffffffffffffffffffff1681526020019081526020015f205f82825401925050819055505b8460025f8681526020019081526020015f205f6101000a81548173ffffffffffffffffffffffffffffffffffffffff021916908373ffffffffffffffffffffffffffffffffffffffff160217905550838573ffffffffffffffffffffffffffffffffffffffff168273ffffffffffffffffffffffffffffffffffffffff167fddf252ad1be2c89b69c2b068fc378daa952ba7f163c4a11628f55a4df523b3ef60405160405180910390a4809150509392505050565b610c076109db565b73ffffffffffffffffffffffffffffffffffffffff16610c2561066f565b73ffffffffffffffffffffffffffffffffffffffff1614610c8457610c486109db565b6040517f118cdaa7000000000000000000000000000000000000000000000000000000008152600401610c7b9190611c84565b60405180910390fd5b565b5f60075f9054906101000a900473ffffffffffffffffffffffffffffffffffffffff1690508160075f6101000a81548173ffffffffffffffffffffffffffffffffffffffff021916908373ffffffffffffffffffffffffffffffffffffffff1602179055508173ffffffffffffffffffffffffffffffffffffffff168173ffffffffffffffffffffffffffffffffffffffff167f8be0079c531659141344cd1fd0a4f28419497f9722a3daafe3b4186f6b6457e060405160405180910390a35050565b5f73ffffffffffffffffffffffffffffffffffffffff168273ffffffffffffffffffffffffffffffffffffffff1603610db957816040517f5b08ba18000000000000000000000000000000000000000000000000000000008152600401610db09190611c84565b60405180910390fd5b8060055f8573ffffffffffffffffffffffffffffffffffffffff1673ffffffffffffffffffffffffffffffffffffffff1681526020019081526020015f205f8473ffffffffffffffffffffffffffffffffffffffff1673ffffffffffffffffffffffffffffffffffffffff1681526020019081526020015f205f6101000a81548160ff0219169083151502179055508173ffffffffffffffffffffffffffffffffffffffff168373ffffffffffffffffffffffffffffffffffffffff167f17307eab39ab6107e8899845ad3d59bd9653f200f220920489ca2b5937696c3183604051610ea59190611b24565b60405180910390a3505050565b5f8373ffffffffffffffffffffffffffffffffffffffff163b111561105e578273ffffffffffffffffffffffffffffffffffffffff1663150b7a02610ef56109db565b8685856040518563ffffffff1660e01b8152600401610f1794939291906121d6565b6020604051808303815f875af1925050508015610f5257506040513d601f19601f82011682018060405250810190610f4f9190612234565b60015b610fd3573d805f8114610f80576040519150601f19603f3d011682016040523d82523d5f602084013e610f85565b606091505b505f815103610fcb57836040517f64a0ae92000000000000000000000000000000000000000000000000000000008152600401610fc29190611c84565b60405180910390fd5b805181602001fd5b63150b7a0260e01b7bffffffffffffffffffffffffffffffffffffffffffffffffffffffff1916817bffffffffffffffffffffffffffffffffffffffffffffffffffffffff19161461105c57836040517f64a0ae920000000000000000000000000000000000000000000000000000000081526004016110539190611c84565b60405180910390fd5b505b50505050565b606061106f8261091c565b505f60065f8481526020019081526020015f20805461108d9061211f565b80601f01602080910402602001604051908101604052809291908181526020018280546110b99061211f565b80156111045780601f106110db57610100808354040283529160200191611104565b820191905f5260205f20905b8154815290600101906020018083116110e757829003601f168201915b505050505090505f6111146115ab565b90505f81510361112857819250505061116a565b5f8251111561115c578082604051602001611144929190612299565b6040516020818303038152906040529250505061116a565b611165846115c1565b925050505b919050565b5f815f01549050919050565b611194828260405180602001604052805f815250611627565b5050565b8060065f8481526020019081526020015f2090816111b69190612459565b507ff8e1a15aba9398e019f0b49df1a4fde98ee17ae345cb5f6b5e2c27f5033e8ce7826040516111e69190611d8f565b60405180910390a15050565b6001815f015f8282546112059190612555565b9250508190555050565b5f7f80ac58cd000000000000000000000000000000000000000000000000000000007bffffffffffffffffffffffffffffffffffffffffffffffffffffffff1916827bffffffffffffffffffffffffffffffffffffffffffffffffffffffff191614806112d957507f5b5e139f000000000000000000000000000000000000000000000000000000007bffffffffffffffffffffffffffffffffffffffffffffffffffffffff1916827bffffffffffffffffffffffffffffffffffffffffffffffffffffffff1916145b806112e957506112e882611642565b5b9050919050565b5f60025f8381526020019081526020015f205f9054906101000a900473ffffffffffffffffffffffffffffffffffffffff169050919050565b808061136157505f73ffffffffffffffffffffffffffffffffffffffff168273ffffffffffffffffffffffffffffffffffffffff1614155b15611493575f6113708461091c565b90505f73ffffffffffffffffffffffffffffffffffffffff168373ffffffffffffffffffffffffffffffffffffffff16141580156113da57508273ffffffffffffffffffffffffffffffffffffffff168173ffffffffffffffffffffffffffffffffffffffff1614155b80156113ed57506113eb81846107aa565b155b1561142f57826040517fa9fbf51f0000000000000000000000000000000000000000000000000000000081526004016114269190611c84565b60405180910390fd5b811561149157838573ffffffffffffffffffffffffffffffffffffffff168273ffffffffffffffffffffffffffffffffffffffff167f8c5be1e5ebec7d5bd14f71427d1e84f3dd0314c0f7b2291e5b200ac8c7c3b92560405160405180910390a45b505b8360045f8581526020019081526020015f205f6101000a81548173ffffffffffffffffffffffffffffffffffffffff021916908373ffffffffffffffffffffffffffffffffffffffff16021790555050505050565b6114f38383836116ab565b6115a6575f73ffffffffffffffffffffffffffffffffffffffff168373ffffffffffffffffffffffffffffffffffffffff160361156757806040517f7e27328900000000000000000000000000000000000000000000000000000000815260040161155e9190611d8f565b60405180910390fd5b81816040517f177e802f00000000000000000000000000000000000000000000000000000000815260040161159d929190612588565b60405180910390fd5b505050565b606060405180602001604052805f815250905090565b60606115cc8261091c565b505f6115d66115ab565b90505f8151116115f45760405180602001604052805f81525061161f565b806115fe8461176b565b60405160200161160f929190612299565b6040516020818303038152906040525b915050919050565b6116318383611835565b61163d5f848484610eb2565b505050565b5f7f01ffc9a7000000000000000000000000000000000000000000000000000000007bffffffffffffffffffffffffffffffffffffffffffffffffffffffff1916827bffffffffffffffffffffffffffffffffffffffffffffffffffffffff1916149050919050565b5f8073ffffffffffffffffffffffffffffffffffffffff168373ffffffffffffffffffffffffffffffffffffffff161415801561176257508273ffffffffffffffffffffffffffffffffffffffff168473ffffffffffffffffffffffffffffffffffffffff161480611723575061172284846107aa565b5b8061176157508273ffffffffffffffffffffffffffffffffffffffff16611749836109a2565b73ffffffffffffffffffffffffffffffffffffffff16145b5b90509392505050565b60605f600161177984611928565b0190505f8167ffffffffffffffff81111561179757611796611e18565b5b6040519080825280601f01601f1916602001820160405280156117c95781602001600182028036833780820191505090505b5090505f82602001820190505b60011561182a578080600190039150507f3031323334353637383961626364656600000000000000000000000000000000600a86061a8153600a858161181f5761181e6125af565b5b0494505f85036117d6575b819350505050919050565b5f73ffffffffffffffffffffffffffffffffffffffff168273ffffffffffffffffffffffffffffffffffffffff16036118a5575f6040517f64a0ae9200000000000000000000000000000000000000000000000000000000815260040161189c9190611c84565b60405180910390fd5b5f6118b183835f6109f4565b90505f73ffffffffffffffffffffffffffffffffffffffff168173ffffffffffffffffffffffffffffffffffffffff1614611923575f6040517f73c6ac6e00000000000000000000000000000000000000000000000000000000815260040161191a9190611c84565b60405180910390fd5b505050565b5f805f90507a184f03e93ff9f4daa797ed6e38ed64bf6a1f0100000000000000008310611984577a184f03e93ff9f4daa797ed6e38ed64bf6a1f010000000000000000838161197a576119796125af565b5b0492506040810190505b6d04ee2d6d415b85acef810000000083106119c1576d04ee2d6d415b85acef810000000083816119b7576119b66125af565b5b0492506020810190505b662386f26fc1000083106119f057662386f26fc1000083816119e6576119e56125af565b5b0492506010810190505b6305f5e1008310611a19576305f5e1008381611a0f57611a0e6125af565b5b0492506008810190505b6127108310611a3e576127108381611a3457611a336125af565b5b0492506004810190505b60648310611a615760648381611a5757611a566125af565b5b0492506002810190505b600a8310611a70576001810190505b80915050919050565b5f604051905090565b5f80fd5b5f80fd5b5f7fffffffff0000000000000000000000000000000000000000000000000000000082169050919050565b611abe81611a8a565b8114611ac8575f80fd5b50565b5f81359050611ad981611ab5565b92915050565b5f60208284031215611af457611af3611a82565b5b5f611b0184828501611acb565b91505092915050565b5f8115159050919050565b611b1e81611b0a565b82525050565b5f602082019050611b375f830184611b15565b92915050565b5f81519050919050565b5f82825260208201905092915050565b5f5b83811015611b74578082015181840152602081019050611b59565b5f8484015250505050565b5f601f19601f8301169050919050565b5f611b9982611b3d565b611ba38185611b47565b9350611bb3818560208601611b57565b611bbc81611b7f565b840191505092915050565b5f6020820190508181035f830152611bdf8184611b8f565b905092915050565b5f819050919050565b611bf981611be7565b8114611c03575f80fd5b50565b5f81359050611c1481611bf0565b92915050565b5f60208284031215611c2f57611c2e611a82565b5b5f611c3c84828501611c06565b91505092915050565b5f73ffffffffffffffffffffffffffffffffffffffff82169050919050565b5f611c6e82611c45565b9050919050565b611c7e81611c64565b82525050565b5f602082019050611c975f830184611c75565b92915050565b611ca681611c64565b8114611cb0575f80fd5b50565b5f81359050611cc181611c9d565b92915050565b5f8060408385031215611cdd57611cdc611a82565b5b5f611cea85828601611cb3565b9250506020611cfb85828601611c06565b9150509250929050565b5f805f60608486031215611d1c57611d1b611a82565b5b5f611d2986828701611cb3565b9350506020611d3a86828701611cb3565b9250506040611d4b86828701611c06565b9150509250925092565b5f60208284031215611d6a57611d69611a82565b5b5f611d7784828501611cb3565b91505092915050565b611d8981611be7565b82525050565b5f602082019050611da25f830184611d80565b92915050565b611db181611b0a565b8114611dbb575f80fd5b50565b5f81359050611dcc81611da8565b92915050565b5f8060408385031215611de857611de7611a82565b5b5f611df585828601611cb3565b9250506020611e0685828601611dbe565b9150509250929050565b5f80fd5b5f80fd5b7f4e487b71000000000000000000000000000000000000000000000000000000005f52604160045260245ffd5b611e4e82611b7f565b810181811067ffffffffffffffff82111715611e6d57611e6c611e18565b5b80604052505050565b5f611e7f611a79565b9050611e8b8282611e45565b919050565b5f67ffffffffffffffff821115611eaa57611ea9611e18565b5b611eb382611b7f565b9050602081019050919050565b828183375f83830152505050565b5f611ee0611edb84611e90565b611e76565b905082815260208101848484011115611efc57611efb611e14565b5b611f07848285611ec0565b509392505050565b5f82601f830112611f2357611f22611e10565b5b8135611f33848260208601611ece565b91505092915050565b5f805f8060808587031215611f5457611f53611a82565b5b5f611f6187828801611cb3565b9450506020611f7287828801611cb3565b9350506040611f8387828801611c06565b925050606085013567ffffffffffffffff811115611fa457611fa3611a86565b5b611fb087828801611f0f565b91505092959194509250565b5f67ffffffffffffffff821115611fd657611fd5611e18565b5b611fdf82611b7f565b9050602081019050919050565b5f611ffe611ff984611fbc565b611e76565b90508281526020810184848401111561201a57612019611e14565b5b612025848285611ec0565b509392505050565b5f82601f83011261204157612040611e10565b5b8135612051848260208601611fec565b91505092915050565b5f80604083850312156120705761206f611a82565b5b5f61207d85828601611cb3565b925050602083013567ffffffffffffffff81111561209e5761209d611a86565b5b6120aa8582860161202d565b9150509250929050565b5f80604083850312156120ca576120c9611a82565b5b5f6120d785828601611cb3565b92505060206120e885828601611cb3565b9150509250929050565b7f4e487b71000000000000000000000000000000000000000000000000000000005f52602260045260245ffd5b5f600282049050600182168061213657607f821691505b602082108103612149576121486120f2565b5b50919050565b5f6060820190506121625f830186611c75565b61216f6020830185611d80565b61217c6040830184611c75565b949350505050565b5f81519050919050565b5f82825260208201905092915050565b5f6121a882612184565b6121b2818561218e565b93506121c2818560208601611b57565b6121cb81611b7f565b840191505092915050565b5f6080820190506121e95f830187611c75565b6121f66020830186611c75565b6122036040830185611d80565b8181036060830152612215818461219e565b905095945050505050565b5f8151905061222e81611ab5565b92915050565b5f6020828403121561224957612248611a82565b5b5f61225684828501612220565b91505092915050565b5f81905092915050565b5f61227382611b3d565b61227d818561225f565b935061228d818560208601611b57565b80840191505092915050565b5f6122a48285612269565b91506122b08284612269565b91508190509392505050565b5f819050815f5260205f209050919050565b5f6020601f8301049050919050565b5f82821b905092915050565b5f600883026123187fffffffffffffffffffffffffffffffffffffffffffffffffffffffffffffffff826122dd565b61232286836122dd565b95508019841693508086168417925050509392505050565b5f819050919050565b5f61235d61235861235384611be7565b61233a565b611be7565b9050919050565b5f819050919050565b61237683612343565b61238a61238282612364565b8484546122e9565b825550505050565b5f90565b61239e612392565b6123a981848461236d565b505050565b5b818110156123cc576123c15f82612396565b6001810190506123af565b5050565b601f821115612411576123e2816122bc565b6123eb846122ce565b810160208510156123fa578190505b61240e612406856122ce565b8301826123ae565b50505b505050565b5f82821c905092915050565b5f6124315f1984600802612416565b1980831691505092915050565b5f6124498383612422565b9150826002028217905092915050565b61246282611b3d565b67ffffffffffffffff81111561247b5761247a611e18565b5b612485825461211f565b6124908282856123d0565b5f60209050601f8311600181146124c1575f84156124af578287015190505b6124b9858261243e565b865550612520565b601f1984166124cf866122bc565b5f5b828110156124f6578489015182556001820191506020850194506020810190506124d1565b86831015612513578489015161250f601f891682612422565b8355505b6001600288020188555050505b505050505050565b7f4e487b71000000000000000000000000000000000000000000000000000000005f52601160045260245ffd5b5f61255f82611be7565b915061256a83611be7565b925082820190508082111561258257612581612528565b5b92915050565b5f60408201905061259b5f830185611c75565b6125a86020830184611d80565b9392505050565b7f4e487b71000000000000000000000000000000000000000000000000000000005f52601260045260245ffdfea26469706673582212204ef4ea16cd3371a7147b0ac85c547083f4a90823170481f2895de04f65f2311964736f6c63430008150033",
  "immutableReferences": {},
  "source": "// SPDX-License-Identifier: MIT\npragma solidity ^0.8.7;\n\nimport \"@openzeppelin/contracts/token/ERC721/extensions/ERC721URIStorage.sol\";\nimport \"@openzeppelin/contracts/token/ERC721/extensions/ERC721Burnable.sol\";\nimport \"@openzeppelin/contracts/token/ERC721/ERC721.sol\";\nimport \"@openzeppelin/contracts/access/Ownable.sol\";\n// import \"@openzeppelin/contracts/utils/Counters.sol\";\nimport \"openzeppelin-solidity/contracts/utils/Counters.sol\";\n\ncontract PlanesWalker is ERC721, ERC721URIStorage, ERC721Burnable, Ownable {\n    using Counters for Counters.Counter; \n    Counters.Counter private tokenIDs;\n    constructor(address initialOwner)\n        ERC721(\"PlanesWalker\", \"PW\")\n        Ownable(initialOwner)\n    {}\n\n    function safeMint(address to, string memory uri)\n        public\n        onlyOwner\n        returns (uint256)\n    {\n        uint256 walkerID = tokenIDs.current();\n        _safeMint(to, walkerID);\n        _setTokenURI(walkerID, uri);\n\n        tokenIDs.increment();\n        return walkerID;\n    }\n\n    // The following functions are overrides required by Solidity.\n\n    function tokenURI(uint256 tokenID)\n        public\n        view\n        override(ERC721, ERC721URIStorage)\n        returns (string memory)\n    {\n        return super.tokenURI(tokenID);\n    }\n\n    function supportsInterface(bytes4 interfaceID)\n        public\n        view\n        override(ERC721, ERC721URIStorage)\n        returns (bool)\n    {\n        return super.supportsInterface(interfaceID);\n    }\n}",
  "sourcePath": "/home/mick/Documents/S24_Chain_Cards/backend/testing/truffle/contracts/planeswalker.sol",
  "compiler": {
    "name": "solc",
    "version": "0.8.21+commit.d9974bed.Emscripten.clang"
  },
  "schemaVersion": "3.4.16",
  "updatedAt": "2024-04-17T21:08:40.640Z",
  "devdoc": {
    "errors": {
      "ERC721IncorrectOwner(address,uint256,address)": [
        {
          "details": "Indicates an error related to the ownership over a particular token. Used in transfers.",
          "params": {
            "owner": "Address of the current owner of a token.",
            "sender": "Address whose tokens are being transferred.",
            "tokenId": "Identifier number of a token."
          }
        }
      ],
      "ERC721InsufficientApproval(address,uint256)": [
        {
          "details": "Indicates a failure with the `operator`s approval. Used in transfers.",
          "params": {
            "operator": "Address that may be allowed to operate on tokens without being their owner.",
            "tokenId": "Identifier number of a token."
          }
        }
      ],
      "ERC721InvalidApprover(address)": [
        {
          "details": "Indicates a failure with the `approver` of a token to be approved. Used in approvals.",
          "params": {
            "approver": "Address initiating an approval operation."
          }
        }
      ],
      "ERC721InvalidOperator(address)": [
        {
          "details": "Indicates a failure with the `operator` to be approved. Used in approvals.",
          "params": {
            "operator": "Address that may be allowed to operate on tokens without being their owner."
          }
        }
      ],
      "ERC721InvalidOwner(address)": [
        {
          "details": "Indicates that an address can't be an owner. For example, `address(0)` is a forbidden owner in EIP-20. Used in balance queries.",
          "params": {
            "owner": "Address of the current owner of a token."
          }
        }
      ],
      "ERC721InvalidReceiver(address)": [
        {
          "details": "Indicates a failure with the token `receiver`. Used in transfers.",
          "params": {
            "receiver": "Address to which tokens are being transferred."
          }
        }
      ],
      "ERC721InvalidSender(address)": [
        {
          "details": "Indicates a failure with the token `sender`. Used in transfers.",
          "params": {
            "sender": "Address whose tokens are being transferred."
          }
        }
      ],
      "ERC721NonexistentToken(uint256)": [
        {
          "details": "Indicates a `tokenId` whose `owner` is the zero address.",
          "params": {
            "tokenId": "Identifier number of a token."
          }
        }
      ],
      "OwnableInvalidOwner(address)": [
        {
          "details": "The owner is not a valid owner account. (eg. `address(0)`)"
        }
      ],
      "OwnableUnauthorizedAccount(address)": [
        {
          "details": "The caller account is not authorized to perform an operation."
        }
      ]
    },
    "events": {
      "Approval(address,address,uint256)": {
        "details": "Emitted when `owner` enables `approved` to manage the `tokenId` token."
      },
      "ApprovalForAll(address,address,bool)": {
        "details": "Emitted when `owner` enables or disables (`approved`) `operator` to manage all of its assets."
      },
      "BatchMetadataUpdate(uint256,uint256)": {
        "details": "This event emits when the metadata of a range of tokens is changed. So that the third-party platforms such as NFT market could timely update the images and related attributes of the NFTs."
      },
      "MetadataUpdate(uint256)": {
        "details": "This event emits when the metadata of a token is changed. So that the third-party platforms such as NFT market could timely update the images and related attributes of the NFT."
      },
      "Transfer(address,address,uint256)": {
        "details": "Emitted when `tokenId` token is transferred from `from` to `to`."
      }
    },
    "kind": "dev",
    "methods": {
      "approve(address,uint256)": {
        "details": "See {IERC721-approve}."
      },
      "balanceOf(address)": {
        "details": "See {IERC721-balanceOf}."
      },
      "burn(uint256)": {
        "details": "Burns `tokenId`. See {ERC721-_burn}. Requirements: - The caller must own `tokenId` or be an approved operator."
      },
      "getApproved(uint256)": {
        "details": "See {IERC721-getApproved}."
      },
      "isApprovedForAll(address,address)": {
        "details": "See {IERC721-isApprovedForAll}."
      },
      "name()": {
        "details": "See {IERC721Metadata-name}."
      },
      "owner()": {
        "details": "Returns the address of the current owner."
      },
      "ownerOf(uint256)": {
        "details": "See {IERC721-ownerOf}."
      },
      "renounceOwnership()": {
        "details": "Leaves the contract without owner. It will not be possible to call `onlyOwner` functions. Can only be called by the current owner. NOTE: Renouncing ownership will leave the contract without an owner, thereby disabling any functionality that is only available to the owner."
      },
      "safeTransferFrom(address,address,uint256)": {
        "details": "See {IERC721-safeTransferFrom}."
      },
      "safeTransferFrom(address,address,uint256,bytes)": {
        "details": "See {IERC721-safeTransferFrom}."
      },
      "setApprovalForAll(address,bool)": {
        "details": "See {IERC721-setApprovalForAll}."
      },
      "symbol()": {
        "details": "See {IERC721Metadata-symbol}."
      },
      "transferFrom(address,address,uint256)": {
        "details": "See {IERC721-transferFrom}."
      },
      "transferOwnership(address)": {
        "details": "Transfers ownership of the contract to a new account (`newOwner`). Can only be called by the current owner."
      }
    },
    "version": 1
  },
  "userdoc": {
    "kind": "user",
    "methods": {},
    "version": 1
  }
}